{
  "contractName": "EDIPI",
  "abi": [
    {
      "inputs": [
        {
          "internalType": "address",
          "name": "_mintTo",
          "type": "address"
        }
      ],
      "stateMutability": "nonpayable",
      "type": "constructor"
    },
    {
      "anonymous": false,
      "inputs": [
        {
          "indexed": true,
          "internalType": "address",
          "name": "owner",
          "type": "address"
        },
        {
          "indexed": true,
          "internalType": "address",
          "name": "spender",
          "type": "address"
        },
        {
          "indexed": false,
          "internalType": "uint256",
          "name": "value",
          "type": "uint256"
        }
      ],
      "name": "Approval",
      "type": "event"
    },
    {
      "anonymous": false,
      "inputs": [
        {
          "indexed": true,
          "internalType": "address",
          "name": "previousOwner",
          "type": "address"
        },
        {
          "indexed": true,
          "internalType": "address",
          "name": "newOwner",
          "type": "address"
        }
      ],
      "name": "OwnershipTransferred",
      "type": "event"
    },
    {
      "anonymous": false,
      "inputs": [
        {
          "indexed": true,
          "internalType": "address",
          "name": "from",
          "type": "address"
        },
        {
          "indexed": true,
          "internalType": "address",
          "name": "to",
          "type": "address"
        },
        {
          "indexed": false,
          "internalType": "uint256",
          "name": "value",
          "type": "uint256"
        }
      ],
      "name": "Transfer",
      "type": "event"
    },
    {
      "inputs": [
        {
          "internalType": "address",
          "name": "owner",
          "type": "address"
        },
        {
          "internalType": "address",
          "name": "spender",
          "type": "address"
        }
      ],
      "name": "allowance",
      "outputs": [
        {
          "internalType": "uint256",
          "name": "",
          "type": "uint256"
        }
      ],
      "stateMutability": "view",
      "type": "function",
      "constant": true
    },
    {
      "inputs": [
        {
          "internalType": "address",
          "name": "spender",
          "type": "address"
        },
        {
          "internalType": "uint256",
          "name": "amount",
          "type": "uint256"
        }
      ],
      "name": "approve",
      "outputs": [
        {
          "internalType": "bool",
          "name": "",
          "type": "bool"
        }
      ],
      "stateMutability": "nonpayable",
      "type": "function"
    },
    {
      "inputs": [
        {
          "internalType": "address",
          "name": "account",
          "type": "address"
        }
      ],
      "name": "balanceOf",
      "outputs": [
        {
          "internalType": "uint256",
          "name": "",
          "type": "uint256"
        }
      ],
      "stateMutability": "view",
      "type": "function",
      "constant": true
    },
    {
      "inputs": [],
      "name": "decimals",
      "outputs": [
        {
          "internalType": "uint8",
          "name": "",
          "type": "uint8"
        }
      ],
      "stateMutability": "view",
      "type": "function",
      "constant": true
    },
    {
      "inputs": [
        {
          "internalType": "address",
          "name": "spender",
          "type": "address"
        },
        {
          "internalType": "uint256",
          "name": "subtractedValue",
          "type": "uint256"
        }
      ],
      "name": "decreaseAllowance",
      "outputs": [
        {
          "internalType": "bool",
          "name": "",
          "type": "bool"
        }
      ],
      "stateMutability": "nonpayable",
      "type": "function"
    },
    {
      "inputs": [],
      "name": "getOwner",
      "outputs": [
        {
          "internalType": "address",
          "name": "",
          "type": "address"
        }
      ],
      "stateMutability": "view",
      "type": "function",
      "constant": true
    },
    {
      "inputs": [
        {
          "internalType": "address",
          "name": "spender",
          "type": "address"
        },
        {
          "internalType": "uint256",
          "name": "addedValue",
          "type": "uint256"
        }
      ],
      "name": "increaseAllowance",
      "outputs": [
        {
          "internalType": "bool",
          "name": "",
          "type": "bool"
        }
      ],
      "stateMutability": "nonpayable",
      "type": "function"
    },
    {
      "inputs": [],
      "name": "name",
      "outputs": [
        {
          "internalType": "string",
          "name": "",
          "type": "string"
        }
      ],
      "stateMutability": "view",
      "type": "function",
      "constant": true
    },
    {
      "inputs": [],
      "name": "owner",
      "outputs": [
        {
          "internalType": "address",
          "name": "",
          "type": "address"
        }
      ],
      "stateMutability": "view",
      "type": "function",
      "constant": true
    },
    {
      "inputs": [],
      "name": "renounceOwnership",
      "outputs": [],
      "stateMutability": "nonpayable",
      "type": "function"
    },
    {
      "inputs": [],
      "name": "symbol",
      "outputs": [
        {
          "internalType": "string",
          "name": "",
          "type": "string"
        }
      ],
      "stateMutability": "view",
      "type": "function",
      "constant": true
    },
    {
      "inputs": [],
      "name": "totalSupply",
      "outputs": [
        {
          "internalType": "uint256",
          "name": "",
          "type": "uint256"
        }
      ],
      "stateMutability": "view",
      "type": "function",
      "constant": true
    },
    {
      "inputs": [
        {
          "internalType": "address",
          "name": "recipient",
          "type": "address"
        },
        {
          "internalType": "uint256",
          "name": "amount",
          "type": "uint256"
        }
      ],
      "name": "transfer",
      "outputs": [
        {
          "internalType": "bool",
          "name": "",
          "type": "bool"
        }
      ],
      "stateMutability": "nonpayable",
      "type": "function"
    },
    {
      "inputs": [
        {
          "internalType": "address",
          "name": "sender",
          "type": "address"
        },
        {
          "internalType": "address",
          "name": "recipient",
          "type": "address"
        },
        {
          "internalType": "uint256",
          "name": "amount",
          "type": "uint256"
        }
      ],
      "name": "transferFrom",
      "outputs": [
        {
          "internalType": "bool",
          "name": "",
          "type": "bool"
        }
      ],
      "stateMutability": "nonpayable",
      "type": "function"
    },
    {
      "inputs": [
        {
          "internalType": "address",
          "name": "newOwner",
          "type": "address"
        }
      ],
      "name": "transferOwnership",
      "outputs": [],
      "stateMutability": "nonpayable",
      "type": "function"
    },
    {
      "inputs": [
        {
          "internalType": "address",
          "name": "_to",
          "type": "address"
        },
        {
          "internalType": "uint256",
          "name": "_amount",
          "type": "uint256"
        }
      ],
      "name": "mint",
      "outputs": [],
      "stateMutability": "nonpayable",
      "type": "function"
    },
    {
      "inputs": [
        {
          "internalType": "uint256",
          "name": "amount",
          "type": "uint256"
        }
      ],
      "name": "mint",
      "outputs": [
        {
          "internalType": "bool",
          "name": "",
          "type": "bool"
        }
      ],
      "stateMutability": "nonpayable",
      "type": "function"
    }
  ],
  "bytecode": "0x60806040523480156200001157600080fd5b50604051620011f1380380620011f1833981810160405260208110156200003757600080fd5b5051604080518082018252600b81526a22a224a824902a37b5b2b760a91b60208281019190915282518084019093526005835264454449504960d81b908301529060006200008462000126565b600080546001600160a01b0319166001600160a01b0383169081178255604051929350917f8be0079c531659141344cd1fd0a4f28419497f9722a3daafe3b4186f6b6457e0908290a3508151620000e390600490602085019062000291565b508051620000f990600590602084019062000291565b50506006805460ff19166012179055506200011f816969e10de76676d08000006200012a565b506200032d565b3390565b6001600160a01b03821662000186576040805162461bcd60e51b815260206004820152601f60248201527f42455032303a206d696e7420746f20746865207a65726f206164647265737300604482015290519081900360640190fd5b620001a2816003546200022f60201b620008771790919060201c565b6003556001600160a01b038216600090815260016020908152604090912054620001d7918390620008776200022f821b17901c565b6001600160a01b03831660008181526001602090815260408083209490945583518581529351929391927fddf252ad1be2c89b69c2b068fc378daa952ba7f163c4a11628f55a4df523b3ef9281900390910190a35050565b6000828201838110156200028a576040805162461bcd60e51b815260206004820152601b60248201527f536166654d6174683a206164646974696f6e206f766572666c6f770000000000604482015290519081900360640190fd5b9392505050565b828054600181600116156101000203166002900490600052602060002090601f016020900481019282601f10620002d457805160ff191683800117855562000304565b8280016001018555821562000304579182015b8281111562000304578251825591602001919060010190620002e7565b506200031292915062000316565b5090565b5b8082111562000312576000815560010162000317565b610eb4806200033d6000396000f3fe608060405234801561001057600080fd5b506004361061010b5760003560e01c8063715018a6116100a2578063a0712d6811610071578063a0712d68146102f7578063a457c2d714610314578063a9059cbb14610340578063dd62ed3e1461036c578063f2fde38b1461039a5761010b565b8063715018a6146102bb578063893d20e8146102c35780638da5cb5b146102e757806395d89b41146102ef5761010b565b8063313ce567116100de578063313ce5671461021d578063395093511461023b57806340c10f191461026757806370a08231146102955761010b565b806306fdde0314610110578063095ea7b31461018d57806318160ddd146101cd57806323b872dd146101e7575b600080fd5b6101186103c0565b6040805160208082528351818301528351919283929083019185019080838360005b8381101561015257818101518382015260200161013a565b50505050905090810190601f16801561017f5780820380516001836020036101000a031916815260200191505b509250505060405180910390f35b6101b9600480360360408110156101a357600080fd5b506001600160a01b038135169060200135610456565b604080519115158252519081900360200190f35b6101d5610473565b60408051918252519081900360200190f35b6101b9600480360360608110156101fd57600080fd5b506001600160a01b03813581169160208101359091169060400135610479565b610225610500565b6040805160ff9092168252519081900360200190f35b6101b96004803603604081101561025157600080fd5b506001600160a01b038135169060200135610509565b6102936004803603604081101561027d57600080fd5b506001600160a01b038135169060200135610557565b005b6101d5600480360360208110156102ab57600080fd5b50356001600160a01b03166105bd565b6102936105d8565b6102cb61067a565b604080516001600160a01b039092168252519081900360200190f35b6102cb610689565b610118610698565b6101b96004803603602081101561030d57600080fd5b50356106f9565b6101b96004803603604081101561032a57600080fd5b506001600160a01b03813516906020013561076c565b6101b96004803603604081101561035657600080fd5b506001600160a01b0381351690602001356107d4565b6101d56004803603604081101561038257600080fd5b506001600160a01b03813581169160200135166107e8565b610293600480360360208110156103b057600080fd5b50356001600160a01b0316610813565b60048054604080516020601f600260001961010060018816150201909516949094049384018190048102820181019092528281526060939092909183018282801561044c5780601f106104215761010080835404028352916020019161044c565b820191906000526020600020905b81548152906001019060200180831161042f57829003601f168201915b5050505050905090565b600061046a6104636108d8565b84846108dc565b50600192915050565b60035490565b60006104868484846109c8565b6104f6846104926108d8565b6104f185604051806060016040528060288152602001610da7602891396001600160a01b038a166000908152600260205260408120906104d06108d8565b6001600160a01b031681526020810191909152604001600020549190610b1a565b6108dc565b5060019392505050565b60065460ff1690565b600061046a6105166108d8565b846104f185600260006105276108d8565b6001600160a01b03908116825260208083019390935260409182016000908120918c168152925290205490610877565b61055f6108d8565b6000546001600160a01b039081169116146105af576040805162461bcd60e51b81526020600482018190526024820152600080516020610dcf833981519152604482015290519081900360640190fd5b6105b98282610bb1565b5050565b6001600160a01b031660009081526001602052604090205490565b6105e06108d8565b6000546001600160a01b03908116911614610630576040805162461bcd60e51b81526020600482018190526024820152600080516020610dcf833981519152604482015290519081900360640190fd5b600080546040516001600160a01b03909116907f8be0079c531659141344cd1fd0a4f28419497f9722a3daafe3b4186f6b6457e0908390a3600080546001600160a01b0319169055565b6000610684610689565b905090565b6000546001600160a01b031690565b60058054604080516020601f600260001961010060018816150201909516949094049384018190048102820181019092528281526060939092909183018282801561044c5780601f106104215761010080835404028352916020019161044c565b60006107036108d8565b6000546001600160a01b03908116911614610753576040805162461bcd60e51b81526020600482018190526024820152600080516020610dcf833981519152604482015290519081900360640190fd5b61076461075e6108d8565b83610bb1565b506001919050565b600061046a6107796108d8565b846104f185604051806060016040528060258152602001610e3860259139600260006107a36108d8565b6001600160a01b03908116825260208083019390935260409182016000908120918d16815292529020549190610b1a565b600061046a6107e16108d8565b84846109c8565b6001600160a01b03918216600090815260026020908152604080832093909416825291909152205490565b61081b6108d8565b6000546001600160a01b0390811691161461086b576040805162461bcd60e51b81526020600482018190526024820152600080516020610dcf833981519152604482015290519081900360640190fd5b61087481610c97565b50565b6000828201838110156108d1576040805162461bcd60e51b815260206004820152601b60248201527f536166654d6174683a206164646974696f6e206f766572666c6f770000000000604482015290519081900360640190fd5b9392505050565b3390565b6001600160a01b0383166109215760405162461bcd60e51b8152600401808060200182810382526024815260200180610d5d6024913960400191505060405180910390fd5b6001600160a01b0382166109665760405162461bcd60e51b8152600401808060200182810382526022815260200180610e5d6022913960400191505060405180910390fd5b6001600160a01b03808416600081815260026020908152604080832094871680845294825291829020859055815185815291517f8c5be1e5ebec7d5bd14f71427d1e84f3dd0314c0f7b2291e5b200ac8c7c3b9259281900390910190a3505050565b6001600160a01b038316610a0d5760405162461bcd60e51b8152600401808060200182810382526025815260200180610d386025913960400191505060405180910390fd5b6001600160a01b038216610a525760405162461bcd60e51b8152600401808060200182810382526023815260200180610e156023913960400191505060405180910390fd5b610a8f81604051806060016040528060268152602001610def602691396001600160a01b0386166000908152600160205260409020549190610b1a565b6001600160a01b038085166000908152600160205260408082209390935590841681522054610abe9082610877565b6001600160a01b0380841660008181526001602090815260409182902094909455805185815290519193928716927fddf252ad1be2c89b69c2b068fc378daa952ba7f163c4a11628f55a4df523b3ef92918290030190a3505050565b60008184841115610ba95760405162461bcd60e51b81526004018080602001828103825283818151815260200191508051906020019080838360005b83811015610b6e578181015183820152602001610b56565b50505050905090810190601f168015610b9b5780820380516001836020036101000a031916815260200191505b509250505060405180910390fd5b505050900390565b6001600160a01b038216610c0c576040805162461bcd60e51b815260206004820152601f60248201527f42455032303a206d696e7420746f20746865207a65726f206164647265737300604482015290519081900360640190fd5b600354610c199082610877565b6003556001600160a01b038216600090815260016020526040902054610c3f9082610877565b6001600160a01b03831660008181526001602090815260408083209490945583518581529351929391927fddf252ad1be2c89b69c2b068fc378daa952ba7f163c4a11628f55a4df523b3ef9281900390910190a35050565b6001600160a01b038116610cdc5760405162461bcd60e51b8152600401808060200182810382526026815260200180610d816026913960400191505060405180910390fd5b600080546040516001600160a01b03808516939216917f8be0079c531659141344cd1fd0a4f28419497f9722a3daafe3b4186f6b6457e091a3600080546001600160a01b0319166001600160a01b039290921691909117905556fe42455032303a207472616e736665722066726f6d20746865207a65726f206164647265737342455032303a20617070726f76652066726f6d20746865207a65726f20616464726573734f776e61626c653a206e6577206f776e657220697320746865207a65726f206164647265737342455032303a207472616e7366657220616d6f756e74206578636565647320616c6c6f77616e63654f776e61626c653a2063616c6c6572206973206e6f7420746865206f776e657242455032303a207472616e7366657220616d6f756e7420657863656564732062616c616e636542455032303a207472616e7366657220746f20746865207a65726f206164647265737342455032303a2064656372656173656420616c6c6f77616e63652062656c6f77207a65726f42455032303a20617070726f766520746f20746865207a65726f2061646472657373a2646970667358221220fbb8fc2872934a69085edd661235e900349b151f2cbc06aef9b1635f66015aa664736f6c634300060c0033",
  "immutableReferences": {},
  "source": "pragma solidity 0.6.12;\n\nimport \"@pancakeswap/pancake-swap-lib/contracts/token/BEP20/BEP20.sol\";\n\n//SPDX-License-Identifier: MIT\n\ncontract EDIPI is BEP20 {\n    string constant NAME = \"EDIPI Token\";\n    string constant SYMBOL = \"EDIPI\";\n    uint8 constant DECIMALS = 18;\n    uint256 constant TOTAL_SUPPLY = 500_000 * 10**uint256(DECIMALS);\n\n    constructor(address _mintTo) public BEP20(NAME, SYMBOL) {\n        _mint(_mintTo, TOTAL_SUPPLY);\n    }\n\n    /// @notice Creates `_amount` token to `_to`. Must only be called by the owner (MasterChef).\n    function mint(address _to, uint256 _amount) public onlyOwner {\n        _mint(_to, _amount);\n    }\n}\n",
  "sourcePath": "/home/muneeb/work/DIPI swap/deployUrgentEdipi/contracts/EDIPI.sol",
  "compiler": {
    "name": "solc",
    "version": "0.6.12+commit.27d51765.Emscripten.clang"
  },
  "schemaVersion": "3.3.3",
  "updatedAt": "2021-03-26T20:23:28.099Z",
  "networkType": "ethereum",
  "devdoc": {
    "kind": "dev",
    "methods": {
      "allowance(address,address)": {
        "details": "See {BEP20-allowance}."
      },
      "approve(address,uint256)": {
        "details": "See {BEP20-approve}. Requirements: - `spender` cannot be the zero address."
      },
      "balanceOf(address)": {
        "details": "See {BEP20-balanceOf}."
      },
      "decimals()": {
        "details": "Returns the token decimals."
      },
      "decreaseAllowance(address,uint256)": {
        "details": "Atomically decreases the allowance granted to `spender` by the caller. This is an alternative to {approve} that can be used as a mitigation for problems described in {BEP20-approve}. Emits an {Approval} event indicating the updated allowance. Requirements: - `spender` cannot be the zero address. - `spender` must have allowance for the caller of at least `subtractedValue`."
      },
      "getOwner()": {
        "details": "Returns the bep token owner."
      },
      "increaseAllowance(address,uint256)": {
        "details": "Atomically increases the allowance granted to `spender` by the caller. This is an alternative to {approve} that can be used as a mitigation for problems described in {BEP20-approve}. Emits an {Approval} event indicating the updated allowance. Requirements: - `spender` cannot be the zero address."
      },
      "mint(uint256)": {
        "details": "Creates `amount` tokens and assigns them to `msg.sender`, increasing the total supply. Requirements - `msg.sender` must be the token owner"
      },
      "name()": {
        "details": "Returns the token name."
      },
      "owner()": {
        "details": "Returns the address of the current owner."
      },
      "renounceOwnership()": {
        "details": "Leaves the contract without owner. It will not be possible to call `onlyOwner` functions anymore. Can only be called by the current owner. NOTE: Renouncing ownership will leave the contract without an owner, thereby removing any functionality that is only available to the owner."
      },
      "symbol()": {
        "details": "Returns the token symbol."
      },
      "totalSupply()": {
        "details": "See {BEP20-totalSupply}."
      },
      "transfer(address,uint256)": {
        "details": "See {BEP20-transfer}. Requirements: - `recipient` cannot be the zero address. - the caller must have a balance of at least `amount`."
      },
      "transferFrom(address,address,uint256)": {
        "details": "See {BEP20-transferFrom}. Emits an {Approval} event indicating the updated allowance. This is not required by the EIP. See the note at the beginning of {BEP20}; Requirements: - `sender` and `recipient` cannot be the zero address. - `sender` must have a balance of at least `amount`. - the caller must have allowance for `sender`'s tokens of at least `amount`."
      },
      "transferOwnership(address)": {
        "details": "Transfers ownership of the contract to a new account (`newOwner`). Can only be called by the current owner."
      }
    },
    "version": 1
  },
  "userdoc": {
    "kind": "user",
    "methods": {
      "mint(address,uint256)": {
        "notice": "Creates `_amount` token to `_to`. Must only be called by the owner (MasterChef)."
      }
    },
    "version": 1
  }
}